{
    "contractName": "Admin",
    "abi": [
        {
            "inputs": [],
            "stateMutability": "nonpayable",
            "type": "constructor"
        },
        {
            "anonymous": false,
            "inputs": [
                {
                    "indexed": false,
                    "internalType": "address",
                    "name": "instanceAddress",
                    "type": "address"
                }
            ],
            "name": "CreateTokenSale",
            "type": "event"
        },
        {
            "anonymous": false,
            "inputs": [
                {
                    "indexed": true,
                    "internalType": "bytes32",
                    "name": "role",
                    "type": "bytes32"
                },
                {
                    "indexed": true,
                    "internalType": "bytes32",
                    "name": "previousAdminRole",
                    "type": "bytes32"
                },
                {
                    "indexed": true,
                    "internalType": "bytes32",
                    "name": "newAdminRole",
                    "type": "bytes32"
                }
            ],
            "name": "RoleAdminChanged",
            "type": "event"
        },
        {
            "anonymous": false,
            "inputs": [
                {
                    "indexed": true,
                    "internalType": "bytes32",
                    "name": "role",
                    "type": "bytes32"
                },
                {
                    "indexed": true,
                    "internalType": "address",
                    "name": "account",
                    "type": "address"
                },
                {
                    "indexed": true,
                    "internalType": "address",
                    "name": "sender",
                    "type": "address"
                }
            ],
            "name": "RoleGranted",
            "type": "event"
        },
        {
            "anonymous": false,
            "inputs": [
                {
                    "indexed": true,
                    "internalType": "bytes32",
                    "name": "role",
                    "type": "bytes32"
                },
                {
                    "indexed": true,
                    "internalType": "address",
                    "name": "account",
                    "type": "address"
                },
                {
                    "indexed": true,
                    "internalType": "address",
                    "name": "sender",
                    "type": "address"
                }
            ],
            "name": "RoleRevoked",
            "type": "event"
        },
        {
            "anonymous": false,
            "inputs": [
                {
                    "indexed": false,
                    "internalType": "address",
                    "name": "airdrop",
                    "type": "address"
                }
            ],
            "name": "SetAirdrop",
            "type": "event"
        },
        {
            "inputs": [],
            "name": "DEFAULT_ADMIN_ROLE",
            "outputs": [
                {
                    "internalType": "bytes32",
                    "name": "",
                    "type": "bytes32"
                }
            ],
            "stateMutability": "view",
            "type": "function"
        },
        {
            "inputs": [],
            "name": "OPERATOR",
            "outputs": [
                {
                    "internalType": "bytes32",
                    "name": "",
                    "type": "bytes32"
                }
            ],
            "stateMutability": "view",
            "type": "function"
        },
        {
            "inputs": [
                {
                    "internalType": "address",
                    "name": "_address",
                    "type": "address"
                }
            ],
            "name": "addOperator",
            "outputs": [],
            "stateMutability": "nonpayable",
            "type": "function"
        },
        {
            "inputs": [
                {
                    "internalType": "address",
                    "name": "_instance",
                    "type": "address"
                },
                {
                    "internalType": "address[]",
                    "name": "_blacklist",
                    "type": "address[]"
                }
            ],
            "name": "addToBlackList",
            "outputs": [],
            "stateMutability": "nonpayable",
            "type": "function"
        },
        {
            "inputs": [],
            "name": "airdrop",
            "outputs": [
                {
                    "internalType": "address",
                    "name": "",
                    "type": "address"
                }
            ],
            "stateMutability": "view",
            "type": "function"
        },
        {
            "inputs": [
                {
                    "internalType": "address",
                    "name": "",
                    "type": "address"
                },
                {
                    "internalType": "address",
                    "name": "",
                    "type": "address"
                }
            ],
            "name": "blacklist",
            "outputs": [
                {
                    "internalType": "bool",
                    "name": "",
                    "type": "bool"
                }
            ],
            "stateMutability": "view",
            "type": "function"
        },
        {
            "inputs": [
                {
                    "internalType": "address",
                    "name": "",
                    "type": "address"
                }
            ],
            "name": "blockClaim",
            "outputs": [
                {
                    "internalType": "bool",
                    "name": "",
                    "type": "bool"
                }
            ],
            "stateMutability": "view",
            "type": "function"
        },
        {
            "inputs": [
                {
                    "components": [
                        {
                            "internalType": "address",
                            "name": "initial",
                            "type": "address"
                        },
                        {
                            "internalType": "address",
                            "name": "token",
                            "type": "address"
                        },
                        {
                            "internalType": "uint256",
                            "name": "totalSupply",
                            "type": "uint256"
                        },
                        {
                            "internalType": "uint256",
                            "name": "privateStart",
                            "type": "uint256"
                        },
                        {
                            "internalType": "uint256",
                            "name": "privateEnd",
                            "type": "uint256"
                        },
                        {
                            "internalType": "uint256",
                            "name": "publicStart",
                            "type": "uint256"
                        },
                        {
                            "internalType": "uint256",
                            "name": "publicEnd",
                            "type": "uint256"
                        },
                        {
                            "internalType": "uint256",
                            "name": "privateTokenPrice",
                            "type": "uint256"
                        },
                        {
                            "internalType": "uint256",
                            "name": "publicTokenPrice",
                            "type": "uint256"
                        },
                        {
                            "internalType": "uint256",
                            "name": "publicBuyLimit",
                            "type": "uint256"
                        },
                        {
                            "internalType": "uint256",
                            "name": "escrowPercentage",
                            "type": "uint256"
                        },
                        {
                            "internalType": "uint256[2][]",
                            "name": "escrowReturnMilestones",
                            "type": "uint256[2][]"
                        },
                        {
                            "internalType": "uint256",
                            "name": "thresholdPublicAmount",
                            "type": "uint256"
                        },
                        {
                            "internalType": "uint256[2][]",
                            "name": "vestingPoints",
                            "type": "uint256[2][]"
                        },
                        {
                            "internalType": "uint256",
                            "name": "tokenFeePct",
                            "type": "uint256"
                        },
                        {
                            "internalType": "uint256",
                            "name": "valueFeePct",
                            "type": "uint256"
                        }
                    ],
                    "internalType": "struct ITokenSale.Params",
                    "name": "_params",
                    "type": "tuple"
                }
            ],
            "name": "createPool",
            "outputs": [],
            "stateMutability": "nonpayable",
            "type": "function"
        },
        {
            "inputs": [
                {
                    "internalType": "address",
                    "name": "_instance",
                    "type": "address"
                }
            ],
            "name": "destroyInstance",
            "outputs": [],
            "stateMutability": "nonpayable",
            "type": "function"
        },
        {
            "inputs": [],
            "name": "exchangeOracle",
            "outputs": [
                {
                    "internalType": "address",
                    "name": "",
                    "type": "address"
                }
            ],
            "stateMutability": "view",
            "type": "function"
        },
        {
            "inputs": [
                {
                    "internalType": "address",
                    "name": "_instance",
                    "type": "address"
                }
            ],
            "name": "getParams",
            "outputs": [
                {
                    "components": [
                        {
                            "internalType": "address",
                            "name": "initial",
                            "type": "address"
                        },
                        {
                            "internalType": "address",
                            "name": "token",
                            "type": "address"
                        },
                        {
                            "internalType": "uint256",
                            "name": "totalSupply",
                            "type": "uint256"
                        },
                        {
                            "internalType": "uint256",
                            "name": "privateStart",
                            "type": "uint256"
                        },
                        {
                            "internalType": "uint256",
                            "name": "privateEnd",
                            "type": "uint256"
                        },
                        {
                            "internalType": "uint256",
                            "name": "publicStart",
                            "type": "uint256"
                        },
                        {
                            "internalType": "uint256",
                            "name": "publicEnd",
                            "type": "uint256"
                        },
                        {
                            "internalType": "uint256",
                            "name": "privateTokenPrice",
                            "type": "uint256"
                        },
                        {
                            "internalType": "uint256",
                            "name": "publicTokenPrice",
                            "type": "uint256"
                        },
                        {
                            "internalType": "uint256",
                            "name": "publicBuyLimit",
                            "type": "uint256"
                        },
                        {
                            "internalType": "uint256",
                            "name": "escrowPercentage",
                            "type": "uint256"
                        },
                        {
                            "internalType": "uint256[2][]",
                            "name": "escrowReturnMilestones",
                            "type": "uint256[2][]"
                        },
                        {
                            "internalType": "uint256",
                            "name": "thresholdPublicAmount",
                            "type": "uint256"
                        },
                        {
                            "internalType": "uint256[2][]",
                            "name": "vestingPoints",
                            "type": "uint256[2][]"
                        },
                        {
                            "internalType": "uint256",
                            "name": "tokenFeePct",
                            "type": "uint256"
                        },
                        {
                            "internalType": "uint256",
                            "name": "valueFeePct",
                            "type": "uint256"
                        }
                    ],
                    "internalType": "struct ITokenSale.Params",
                    "name": "",
                    "type": "tuple"
                }
            ],
            "stateMutability": "view",
            "type": "function"
        },
        {
            "inputs": [
                {
                    "internalType": "bytes32",
                    "name": "role",
                    "type": "bytes32"
                }
            ],
            "name": "getRoleAdmin",
            "outputs": [
                {
                    "internalType": "bytes32",
                    "name": "",
                    "type": "bytes32"
                }
            ],
            "stateMutability": "view",
            "type": "function"
        },
        {
            "inputs": [],
            "name": "getTokenSales",
            "outputs": [
                {
                    "internalType": "address[]",
                    "name": "",
                    "type": "address[]"
                }
            ],
            "stateMutability": "view",
            "type": "function"
        },
        {
            "inputs": [],
            "name": "getTokenSalesCount",
            "outputs": [
                {
                    "internalType": "uint256",
                    "name": "",
                    "type": "uint256"
                }
            ],
            "stateMutability": "view",
            "type": "function"
        },
        {
            "inputs": [
                {
                    "internalType": "bytes32",
                    "name": "role",
                    "type": "bytes32"
                },
                {
                    "internalType": "address",
                    "name": "account",
                    "type": "address"
                }
            ],
            "name": "grantRole",
            "outputs": [],
            "stateMutability": "nonpayable",
            "type": "function"
        },
        {
            "inputs": [
                {
                    "internalType": "bytes32",
                    "name": "role",
                    "type": "bytes32"
                },
                {
                    "internalType": "address",
                    "name": "account",
                    "type": "address"
                }
            ],
            "name": "hasRole",
            "outputs": [
                {
                    "internalType": "bool",
                    "name": "",
                    "type": "bool"
                }
            ],
            "stateMutability": "view",
            "type": "function"
        },
        {
            "inputs": [],
            "name": "masterTokenSale",
            "outputs": [
                {
                    "internalType": "address",
                    "name": "",
                    "type": "address"
                }
            ],
            "stateMutability": "view",
            "type": "function"
        },
        {
            "inputs": [
                {
                    "internalType": "address",
                    "name": "_address",
                    "type": "address"
                }
            ],
            "name": "removeClaimBlock",
            "outputs": [],
            "stateMutability": "nonpayable",
            "type": "function"
        },
        {
            "inputs": [
                {
                    "internalType": "address",
                    "name": "_address",
                    "type": "address"
                }
            ],
            "name": "removeOperator",
            "outputs": [],
            "stateMutability": "nonpayable",
            "type": "function"
        },
        {
            "inputs": [
                {
                    "internalType": "bytes32",
                    "name": "role",
                    "type": "bytes32"
                },
                {
                    "internalType": "address",
                    "name": "account",
                    "type": "address"
                }
            ],
            "name": "renounceRole",
            "outputs": [],
            "stateMutability": "nonpayable",
            "type": "function"
        },
        {
            "inputs": [
                {
                    "internalType": "bytes32",
                    "name": "role",
                    "type": "bytes32"
                },
                {
                    "internalType": "address",
                    "name": "account",
                    "type": "address"
                }
            ],
            "name": "revokeRole",
            "outputs": [],
            "stateMutability": "nonpayable",
            "type": "function"
        },
        {
            "inputs": [
                {
                    "internalType": "address",
                    "name": "_address",
                    "type": "address"
                }
            ],
            "name": "setAirdrop",
            "outputs": [],
            "stateMutability": "nonpayable",
            "type": "function"
        },
        {
            "inputs": [
                {
                    "internalType": "address",
                    "name": "_address",
                    "type": "address"
                }
            ],
            "name": "setClaimBlock",
            "outputs": [],
            "stateMutability": "nonpayable",
            "type": "function"
        },
        {
            "inputs": [
                {
                    "internalType": "address",
                    "name": "_address",
                    "type": "address"
                }
            ],
            "name": "setMasterContract",
            "outputs": [],
            "stateMutability": "nonpayable",
            "type": "function"
        },
        {
            "inputs": [
                {
                    "internalType": "address",
                    "name": "_address",
                    "type": "address"
                }
            ],
            "name": "setOracleContract",
            "outputs": [],
            "stateMutability": "nonpayable",
            "type": "function"
        },
        {
            "inputs": [
                {
                    "internalType": "address",
                    "name": "_address",
                    "type": "address"
                }
            ],
            "name": "setStakingContract",
            "outputs": [],
            "stateMutability": "nonpayable",
            "type": "function"
        },
        {
            "inputs": [
                {
                    "internalType": "address",
                    "name": "_address",
                    "type": "address"
                }
            ],
            "name": "setWallet",
            "outputs": [],
            "stateMutability": "nonpayable",
            "type": "function"
        },
        {
            "inputs": [],
            "name": "stakingContract",
            "outputs": [
                {
                    "internalType": "address",
                    "name": "",
                    "type": "address"
                }
            ],
            "stateMutability": "view",
            "type": "function"
        },
        {
            "inputs": [
                {
                    "internalType": "bytes4",
                    "name": "interfaceId",
                    "type": "bytes4"
                }
            ],
            "name": "supportsInterface",
            "outputs": [
                {
                    "internalType": "bool",
                    "name": "",
                    "type": "bool"
                }
            ],
            "stateMutability": "view",
            "type": "function"
        },
        {
            "inputs": [
                {
                    "internalType": "uint256",
                    "name": "",
                    "type": "uint256"
                }
            ],
            "name": "tokenSales",
            "outputs": [
                {
                    "internalType": "address",
                    "name": "",
                    "type": "address"
                }
            ],
            "stateMutability": "view",
            "type": "function"
        },
        {
            "inputs": [
                {
                    "internalType": "address",
                    "name": "",
                    "type": "address"
                }
            ],
            "name": "tokenSalesM",
            "outputs": [
                {
                    "internalType": "bool",
                    "name": "",
                    "type": "bool"
                }
            ],
            "stateMutability": "view",
            "type": "function"
        },
        {
            "inputs": [],
            "name": "wallet",
            "outputs": [
                {
                    "internalType": "address",
                    "name": "",
                    "type": "address"
                }
            ],
            "stateMutability": "view",
            "type": "function"
        }
    ],
    "bytecode": "6080604052600180546001600160401b0319166103e81790553480156200002557600080fd5b506200003360003362000078565b620000607f523a704056dcd17bcf83bed8b68c59416dac1119be77755efe3bde0a64e46e0c600062000088565b600680546001600160a01b0319163317905562000173565b620000848282620000d3565b5050565b600082815260208190526040808220600101805490849055905190918391839186917fbd79b86ffe0ab8e8776151514217cd7cacd52c909f66475c3af44e129f0b00ff9190a4505050565b6000828152602081815260408083206001600160a01b038516845290915290205460ff1662000084576000828152602081815260408083206001600160a01b03851684529091529020805460ff191660011790556200012f3390565b6001600160a01b0316816001600160a01b0316837f2f8788117e7eff1d82e926ec794901d17c78024a50270940304540a733656f0d60405160405180910390a45050565b61288480620001836000396000f3fe608060405234801561001057600080fd5b50600436106101f05760003560e01c80638a1ac5511161010f578063a10cdb29116100a2578063d547741f11610071578063d547741f1461047c578063deaa59df1461048f578063e7f379f7146104a2578063ee99205c146104c557600080fd5b8063a10cdb2914610420578063a217fddf14610433578063ac8a584a1461043b578063ad28ff881461044e57600080fd5b80639870d7fe116100de5780639870d7fe146103d45780639bcf04e4146103e75780639dd373b9146103fa578063a05220ad1461040d57600080fd5b80638a1ac551146103765780638bf8150d1461038957806391d14854146103ac578063983d2737146103bf57600080fd5b80633f68cef111610187578063521eb27311610156578063521eb2731461033557806363930ad81461034857806372820dbc14610350578063882a4a4b1461036357600080fd5b80633f68cef1146102dc57806345cf084b146102ef57806348b4313b14610302578063496ccd9b1461032257600080fd5b80632a3a236f116101c35780632a3a236f146102785780632f2ff15d1461028b57806336568abe1461029e5780633884d635146102b157600080fd5b806301ffc9a7146101f5578063042e24fe1461021d5780630c6ed9c214610232578063248a9ca314610247575b600080fd5b610208610203366004611faf565b6104d8565b60405190151581526020015b60405180910390f35b61023061022b366004611ff0565b61050f565b005b61023a61054a565b604051610214919061200b565b61026a610255366004612058565b60009081526020819052604090206001015490565b604051908152602001610214565b610230610286366004611ff0565b6105ac565b610230610299366004612071565b610626565b6102306102ac366004612071565b610651565b6007546102c4906001600160a01b031681565b6040516001600160a01b039091168152602001610214565b6102306102ea366004612155565b6106cf565b6102c46102fd366004612058565b6108c4565b610315610310366004611ff0565b6108ee565b6040516102149190612356565b610230610330366004611ff0565b610aa7565b6006546102c4906001600160a01b031681565b60025461026a565b61023061035e366004611ff0565b610b18565b610230610371366004612416565b610bbb565b6003546102c4906001600160a01b031681565b610208610397366004611ff0565b60086020526000908152604090205460ff1681565b6102086103ba366004612071565b610e41565b61026a60008051602061282f83398151915281565b6102306103e2366004611ff0565b610e6a565b6102306103f5366004611ff0565b610eac565b610230610408366004611ff0565b610fd8565b6005546102c4906001600160a01b031681565b61023061042e366004611ff0565b611049565b61026a600081565b610230610449366004611ff0565b611087565b61020861045c366004612554565b600c60209081526000928352604080842090915290825290205460ff1681565b61023061048a366004612071565b6110c2565b61023061049d366004611ff0565b6110e8565b6102086104b0366004611ff0565b60096020526000908152604090205460ff1681565b6004546102c4906001600160a01b031681565b60006001600160e01b03198216637965db0b60e01b148061050957506301ffc9a760e01b6001600160e01b03198316145b92915050565b60008051602061282f8339815191526105288133611159565b506001600160a01b03166000908152600960205260409020805460ff19169055565b606060028054806020026020016040519081016040528092919081815260200182805480156105a257602002820191906000526020600020905b81546001600160a01b03168152600190910190602001808311610584575b5050505050905090565b806001600160a01b0381166105dc5760405162461bcd60e51b81526004016105d39061257e565b60405180910390fd5b6105e7600033610e41565b6106035760405162461bcd60e51b81526004016105d3906125a4565b50600380546001600160a01b0319166001600160a01b0392909216919091179055565b6000828152602081905260409020600101546106428133611159565b61064c83836111bd565b505050565b6001600160a01b03811633146106c15760405162461bcd60e51b815260206004820152602f60248201527f416363657373436f6e74726f6c3a2063616e206f6e6c792072656e6f756e636560448201526e103937b632b9903337b91039b2b63360891b60648201526084016105d3565b6106cb8282611241565b5050565b6001600160a01b0382166000908152600b6020526040902060030154829042106107365760405162461bcd60e51b8152602060048201526018602482015277141bdbdb081a185cc8185b1c9958591e481cdd185c9d195960421b60448201526064016105d3565b6001600160a01b038316600090815260086020526040902054839060ff1661079a5760405162461bcd60e51b8152602060048201526017602482015276141bdbdb08191bd95cc81b9bdd08195e1a5cdd081e595d604a1b60448201526064016105d3565b6001600160a01b038481166000908152600b60205260409020541633146107f85760405162461bcd60e51b815260206004820152601260248201527118591c881a5cc81b9bdd081a5b9a5d1a585b60721b60448201526064016105d3565b6101f48351111561083d5760405162461bcd60e51b815260206004820152600f60248201526e546f6f206c6172676520617272617960881b60448201526064016105d3565b60005b83518110156108bd576001600160a01b0385166000908152600c60205260408120855160019290879085908110610879576108796125d4565b6020908102919091018101516001600160a01b03168252810191909152604001600020805460ff1916911515919091179055806108b581612600565b915050610840565b5050505050565b600281815481106108d457600080fd5b6000918252602090912001546001600160a01b0316905081565b6108f6611e5d565b6001600160a01b038083166000908152600b602081815260408084208151610200810183528154871681526001820154909616868401526002810154868301526003810154606087015260048101546080870152600581015460a0870152600681015460c0870152600781015460e087015260088101546101008701526009810154610120870152600a81015461014087015292830180548251818502810185019093528083529394610160870194929391929184015b828210156109fd5760008481526020902060408051808201918290529160028581029091019182845b8154815260200190600101908083116109d6575050505050815260200190600101906109ad565b505050508152602001600c8201548152602001600d8201805480602002602001604051908101604052809291908181526020016000905b82821015610a845760008481526020902060408051808201918290529160028581029091019182845b815481526020019060010190808311610a5d57505050505081526020019060010190610a34565b505050508152602001600e8201548152602001600f820154815250509050919050565b806001600160a01b038116610ace5760405162461bcd60e51b81526004016105d39061257e565b610ad9600033610e41565b610af55760405162461bcd60e51b81526004016105d3906125a4565b50600580546001600160a01b0319166001600160a01b0392909216919091179055565b806001600160a01b038116610b3f5760405162461bcd60e51b81526004016105d39061257e565b610b4a600033610e41565b610b665760405162461bcd60e51b81526004016105d3906125a4565b600780546001600160a01b0319166001600160a01b0384169081179091556040519081527fbf0e311b1201ad81f296821d42657c501de65d478afbafc3c7cacbd1bcd88f4b9060200160405180910390a15050565b60008051602061282f833981519152610bd48133611159565b610bdd826112a6565b50600354600090610bf6906001600160a01b03166116b0565b6001600160a01b038082166000908152600b6020818152604092839020885181549086166001600160a01b0319918216178255828a015160018301805491909716911617909455918701516002840155606087015160038401556080870151600484015560a0870151600584015560c0870151600684015560e0870151600784015561010087015160088401556101208701516009840155610140870151600a84015561016087015180519495508794610cb893928501929190910190611eec565b50610180820151600c8201556101a08201518051610ce091600d840191602090910190611eec565b506101c0820151600e8201556101e090910151600f9091015560048054600554604051637c69ab5560e01b81526001600160a01b0380861694637c69ab5594610d34948a949184169330939116910161261b565b600060405180830381600087803b158015610d4e57600080fd5b505af1158015610d62573d6000803e3d6000fd5b50505050610ddd816001600160a01b03166000818152600860209081526040808320805460ff1916600190811790915560028054600a909452918420839055820181559091527f405787fa12a823e0f2b7631cc41b3ba8828b3321ca811111fa75cd3aa3bb5ace0180546001600160a01b0319169091179055565b825160408401516020850151610e00926001600160a01b0390911691849061174d565b6040516001600160a01b03821681527f38780dedcca1641d8a3829868b1c61839e822b540ca7569d4b791b5015430ab99060200160405180910390a1505050565b6000918252602082815260408084206001600160a01b0393909316845291905290205460ff1690565b610e75600033610e41565b610e915760405162461bcd60e51b81526004016105d3906125a4565b610ea960008051602061282f83398151915282610626565b50565b6001600160a01b038116600090815260086020526040902054819060ff16610f105760405162461bcd60e51b8152602060048201526017602482015276141bdbdb08191bd95cc81b9bdd08195e1a5cdd081e595d604a1b60448201526064016105d3565b6001600160a01b0382166000908152600b602052604090206003015482904210610f775760405162461bcd60e51b8152602060048201526018602482015277141bdbdb081a185cc8185b1c9958591e481cdd185c9d195960421b60448201526064016105d3565b610f80836117ad565b826001600160a01b03166383197ef06040518163ffffffff1660e01b8152600401600060405180830381600087803b158015610fbb57600080fd5b505af1158015610fcf573d6000803e3d6000fd5b50505050505050565b806001600160a01b038116610fff5760405162461bcd60e51b81526004016105d39061257e565b61100a600033610e41565b6110265760405162461bcd60e51b81526004016105d3906125a4565b50600480546001600160a01b0319166001600160a01b0392909216919091179055565b60008051602061282f8339815191526110628133611159565b506001600160a01b03166000908152600960205260409020805460ff19166001179055565b611092600033610e41565b6110ae5760405162461bcd60e51b81526004016105d3906125a4565b610ea960008051602061282f833981519152825b6000828152602081905260409020600101546110de8133611159565b61064c8383611241565b806001600160a01b03811661110f5760405162461bcd60e51b81526004016105d39061257e565b61111a600033610e41565b6111365760405162461bcd60e51b81526004016105d3906125a4565b50600680546001600160a01b0319166001600160a01b0392909216919091179055565b6111638282610e41565b6106cb5761117b816001600160a01b031660146118fd565b6111868360206118fd565b604051602001611197929190612683565b60408051601f198184030181529082905262461bcd60e51b82526105d3916004016126f8565b6111c78282610e41565b6106cb576000828152602081815260408083206001600160a01b03851684529091529020805460ff191660011790556111fd3390565b6001600160a01b0316816001600160a01b0316837f2f8788117e7eff1d82e926ec794901d17c78024a50270940304540a733656f0d60405160405180910390a45050565b61124b8282610e41565b156106cb576000828152602081815260408083206001600160a01b0385168085529252808320805460ff1916905551339285917ff6391f5c32d9c69d2a47ea670b442974b53935d1edc7fd64eb21e047a839171b9190a45050565b6112ae611e5d565b60008260400151116113195760405162461bcd60e51b815260206004820152602e60248201527f546f6b656e20737570706c7920666f722073616c652073686f756c642062652060448201526d067726561746572207468656e20360941b60648201526084016105d3565b42826060015110156113815760405162461bcd60e51b815260206004820152602b60248201527f53746172742074696d652073686f756c6420626520677265617465722074686560448201526a06e2074696d657374616d760ac1b60648201526084016105d3565b81606001518260800151116113a85760405162461bcd60e51b81526004016105d39061272b565b81608001518260a00151116114155760405162461bcd60e51b815260206004820152602d60248201527f5075626c696320726f756e642073686f756c642073746172742061667465722060448201526c1c1c9a5d985d19481c9bdd5b99609a1b60648201526084016105d3565b8160a001518260c001511161143c5760405162461bcd60e51b81526004016105d39061272b565b81516001600160a01b031615801590611461575060208201516001600160a01b031615155b6114ad5760405162461bcd60e51b815260206004820152601c60248201527f696e697469616c41646472657373207c7c20746f6b656e203d3d20300000000060448201526064016105d3565b60005b826101600151518110156115ad57600154610160840151805167ffffffffffffffff90921691839081106114e6576114e66125d4565b6020026020010151600060028110611500576115006125d4565b60200201511080156115565750600154610160840151805167ffffffffffffffff9092169183908110611535576115356125d4565b602002602001015160016002811061154f5761154f6125d4565b6020020151105b61159b5760405162461bcd60e51b8152602060048201526016602482015275657363726f774d696c6573746f6e65203e204241534560501b60448201526064016105d3565b806115a581612600565b9150506114b0565b5060015461014083015167ffffffffffffffff909116116116095760405162461bcd60e51b81526020600482015260166024820152756d757374206265206c657373207468616e204241534560501b60448201526064016105d3565b611617826101600151611aa0565b506101608301526101a082015160009061163090611aa0565b6101a085019190915260015490915067ffffffffffffffff1681146116a95760405162461bcd60e51b815260206004820152602960248201527f616d6f756e74206f662070657263656e74616765206973206e6f7420657175616044820152686c20746f206261736560b81b60648201526084016105d3565b5090919050565b6000604051733d602d80600a3d3981f3363d3d373d3d3d363d7360601b81528260601b60148201526e5af43d82803e903d91602b57fd5bf360881b60288201526037816000f09150506001600160a01b0381166117485760405162461bcd60e51b8152602060048201526016602482015275115490cc4c4d8dce8818dc99585d194819985a5b195960521b60448201526064016105d3565b919050565b604080516001600160a01b0385811660248301528416604482015260648082018490528251808303909101815260849091019091526020810180516001600160e01b03166323b872dd60e01b1790526117a7908590611c13565b50505050565b6001600160a01b0381166000908152600860205260409020805460ff19169055600280546117dd90600190612775565b815481106117ed576117ed6125d4565b60009182526020808320909101546001600160a01b038481168452600a90925260409092205460028054929093169291811061182b5761182b6125d4565b600091825260208083209190910180546001600160a01b0319166001600160a01b039485161790559183168152600a918290526040812054600280549193929161187790600190612775565b81548110611887576118876125d4565b60009182526020808320909101546001600160a01b0316835282019290925260400190205560028054806118bd576118bd61278c565b60008281526020808220830160001990810180546001600160a01b03191690559092019092556001600160a01b03929092168152600a9091526040812055565b6060600061190c8360026127a2565b6119179060026127c1565b67ffffffffffffffff81111561192f5761192f61209d565b6040519080825280601f01601f191660200182016040528015611959576020820181803683370190505b509050600360fc1b81600081518110611974576119746125d4565b60200101906001600160f81b031916908160001a905350600f60fb1b816001815181106119a3576119a36125d4565b60200101906001600160f81b031916908160001a90535060006119c78460026127a2565b6119d29060016127c1565b90505b6001811115611a4a576f181899199a1a9b1b9c1cb0b131b232b360811b85600f1660108110611a0657611a066125d4565b1a60f81b828281518110611a1c57611a1c6125d4565b60200101906001600160f81b031916908160001a90535060049490941c93611a43816127d9565b90506119d5565b508315611a995760405162461bcd60e51b815260206004820181905260248201527f537472696e67733a20686578206c656e67746820696e73756666696369656e7460448201526064016105d3565b9392505050565b805160609060009081805b82811015611c0a576000611ac08260016127c1565b90505b83811015611bba57868181518110611add57611add6125d4565b6020026020010151600060028110611af757611af76125d4565b6020020151878381518110611b0e57611b0e6125d4565b6020026020010151600060028110611b2857611b286125d4565b60200201511015611ba8576000878381518110611b4757611b476125d4565b60200260200101519050878281518110611b6357611b636125d4565b6020026020010151888481518110611b7d57611b7d6125d4565b602002602001018190525080888381518110611b9b57611b9b6125d4565b6020026020010181905250505b80611bb281612600565b915050611ac3565b50858181518110611bcd57611bcd6125d4565b6020026020010151600160028110611be757611be76125d4565b6020020151611bf690836127c1565b915080611c0281612600565b915050611aab565b50939492505050565b6000611c68826040518060400160405280602081526020017f5361666545524332303a206c6f772d6c6576656c2063616c6c206661696c6564815250856001600160a01b0316611ce59092919063ffffffff16565b80519091501561064c5780806020019051810190611c8691906127f0565b61064c5760405162461bcd60e51b815260206004820152602a60248201527f5361666545524332303a204552433230206f7065726174696f6e20646964206e6044820152691bdd081cdd58d8d9595960b21b60648201526084016105d3565b6060611cf48484600085611cfc565b949350505050565b606082471015611d5d5760405162461bcd60e51b815260206004820152602660248201527f416464726573733a20696e73756666696369656e742062616c616e636520666f6044820152651c8818d85b1b60d21b60648201526084016105d3565b843b611dab5760405162461bcd60e51b815260206004820152601d60248201527f416464726573733a2063616c6c20746f206e6f6e2d636f6e747261637400000060448201526064016105d3565b600080866001600160a01b03168587604051611dc79190612812565b60006040518083038185875af1925050503d8060008114611e04576040519150601f19603f3d011682016040523d82523d6000602084013e611e09565b606091505b5091509150611e19828286611e24565b979650505050505050565b60608315611e33575081611a99565b825115611e435782518084602001fd5b8160405162461bcd60e51b81526004016105d391906126f8565b60405180610200016040528060006001600160a01b0316815260200160006001600160a01b0316815260200160008152602001600081526020016000815260200160008152602001600081526020016000815260200160008152602001600081526020016000815260200160608152602001600081526020016060815260200160008152602001600081525090565b828054828255906000526020600020906002028101928215611f36579160200282015b82811115611f36578251611f269083906002611f46565b5091602001919060020190611f0f565b50611f42929150611f80565b5090565b8260028101928215611f74579160200282015b82811115611f74578251825591602001919060010190611f59565b50611f42929150611f9a565b80821115611f425760008082556001820155600201611f80565b5b80821115611f425760008155600101611f9b565b600060208284031215611fc157600080fd5b81356001600160e01b031981168114611a9957600080fd5b80356001600160a01b038116811461174857600080fd5b60006020828403121561200257600080fd5b611a9982611fd9565b6020808252825182820181905260009190848201906040850190845b8181101561204c5783516001600160a01b031683529284019291840191600101612027565b50909695505050505050565b60006020828403121561206a57600080fd5b5035919050565b6000806040838503121561208457600080fd5b8235915061209460208401611fd9565b90509250929050565b634e487b7160e01b600052604160045260246000fd5b6040805190810167ffffffffffffffff811182821017156120d6576120d661209d565b60405290565b604051610200810167ffffffffffffffff811182821017156120d6576120d661209d565b604051601f8201601f1916810167ffffffffffffffff811182821017156121295761212961209d565b604052919050565b600067ffffffffffffffff82111561214b5761214b61209d565b5060051b60200190565b6000806040838503121561216857600080fd5b61217183611fd9565b915060208084013567ffffffffffffffff81111561218e57600080fd5b8401601f8101861361219f57600080fd5b80356121b26121ad82612131565b612100565b81815260059190911b820183019083810190888311156121d157600080fd5b928401925b828410156121f6576121e784611fd9565b825292840192908401906121d6565b80955050505050509250929050565b60008151808452602080850194508084016000805b8481101561225a57825188835b600281101561224457825182529186019190860190600101612227565b505050604097909701969183019160010161221a565b50959695505050505050565b80516001600160a01b031682526000610200602083015161229260208601826001600160a01b03169052565b5060408301516040850152606083015160608501526080830151608085015260a083015160a085015260c083015160c085015260e083015160e085015261010080840151818601525061012080840151818601525061014080840151818601525061016080840151828287015261230b83870182612205565b925050506101808084015181860152506101a080840151858303828701526123338382612205565b6101c086810151908801526101e095860151959096019490945250929392505050565b602081526000611a996020830184612266565b6000601f838184011261237b57600080fd5b8235602061238b6121ad83612131565b82815260069290921b850181019181810190878411156123aa57600080fd5b8287015b8481101561240a5788868201126123c55760008081fd5b6123cd6120b3565b80604083018b8111156123e05760008081fd5b835b818110156123f957803584529287019287016123e2565b5050845250918301916040016123ae565b50979650505050505050565b60006020828403121561242857600080fd5b813567ffffffffffffffff8082111561244057600080fd5b90830190610200828603121561245557600080fd5b61245d6120dc565b61246683611fd9565b815261247460208401611fd9565b602082015260408301356040820152606083013560608201526080830135608082015260a083013560a082015260c083013560c082015260e083013560e082015261010080840135818301525061012080840135818301525061014080840135818301525061016080840135838111156124ed57600080fd5b6124f988828701612369565b8284015250506101808084013581830152506101a0808401358381111561251f57600080fd5b61252b88828701612369565b91830191909152506101c083810135908201526101e09283013592810192909252509392505050565b6000806040838503121561256757600080fd5b61257083611fd9565b915061209460208401611fd9565b6020808252600c908201526b5a65726f206164647265737360a01b604082015260600190565b60208082526016908201527529b2b73232b91034b9903737ba1030b71030b236b4b760511b604082015260600190565b634e487b7160e01b600052603260045260246000fd5b634e487b7160e01b600052601160045260246000fd5b6000600019821415612614576126146125ea565b5060010190565b60808152600061262e6080830187612266565b6001600160a01b0395861660208401529385166040830152509216606090920191909152919050565b60005b8381101561267257818101518382015260200161265a565b838111156117a75750506000910152565b7f416363657373436f6e74726f6c3a206163636f756e74200000000000000000008152600083516126bb816017850160208801612657565b7001034b99036b4b9b9b4b733903937b6329607d1b60179184019182015283516126ec816028840160208801612657565b01602801949350505050565b6020815260008251806020840152612717816040850160208701612657565b601f01601f19169190910160400192915050565b6020808252602a908201527f456e642074696d652073686f756c642062652067726561746572207468656e2060408201526973746172742074696d6560b01b606082015260800190565b600082821015612787576127876125ea565b500390565b634e487b7160e01b600052603160045260246000fd5b60008160001904831182151516156127bc576127bc6125ea565b500290565b600082198211156127d4576127d46125ea565b500190565b6000816127e8576127e86125ea565b506000190190565b60006020828403121561280257600080fd5b81518015158114611a9957600080fd5b60008251612824818460208701612657565b919091019291505056fe523a704056dcd17bcf83bed8b68c59416dac1119be77755efe3bde0a64e46e0ca2646970667358221220913eb7557c2f90b9fbc341f9d21ef871808fd4e3ec6c165c3b23b94daa62f8a864736f6c634300080b0033",
    "sourcePath": "/data/Project/launchpad-contracts/contracts/Admin.sol",
    "compiler": {
        "name": "solc",
        "version": "0.8.11+commit.d7f03943"
    },
    "functionHashes": {
        "DEFAULT_ADMIN_ROLE()": "a217fddf",
        "OPERATOR()": "983d2737",
        "addOperator(address)": "9870d7fe",
        "addToBlackList(address,address[])": "3f68cef1",
        "airdrop()": "3884d635",
        "blacklist(address,address)": "ad28ff88",
        "blockClaim(address)": "e7f379f7",
        "createPool((address,address,uint256,uint256,uint256,uint256,uint256,uint256,uint256,uint256,uint256,uint256[2][],uint256,uint256[2][],uint256,uint256))": "882a4a4b",
        "destroyInstance(address)": "9bcf04e4",
        "exchangeOracle()": "a05220ad",
        "getParams(address)": "48b4313b",
        "getRoleAdmin(bytes32)": "248a9ca3",
        "getTokenSales()": "0c6ed9c2",
        "getTokenSalesCount()": "63930ad8",
        "grantRole(bytes32,address)": "2f2ff15d",
        "hasRole(bytes32,address)": "91d14854",
        "masterTokenSale()": "8a1ac551",
        "removeClaimBlock(address)": "042e24fe",
        "removeOperator(address)": "ac8a584a",
        "renounceRole(bytes32,address)": "36568abe",
        "revokeRole(bytes32,address)": "d547741f",
        "setAirdrop(address)": "72820dbc",
        "setClaimBlock(address)": "a10cdb29",
        "setMasterContract(address)": "2a3a236f",
        "setOracleContract(address)": "496ccd9b",
        "setStakingContract(address)": "9dd373b9",
        "setWallet(address)": "deaa59df",
        "stakingContract()": "ee99205c",
        "supportsInterface(bytes4)": "01ffc9a7",
        "tokenSales(uint256)": "45cf084b",
        "tokenSalesM(address)": "8bf8150d",
        "wallet()": "521eb273"
    },
    "gasEstimates": {
        "creation": {
            "codeDepositCost": "2074400",
            "executionCost": "88513",
            "totalCost": "2162913"
        },
        "external": {
            "DEFAULT_ADMIN_ROLE()": "262",
            "OPERATOR()": "infinite",
            "addOperator(address)": "infinite",
            "addToBlackList(address,address[])": "infinite",
            "airdrop()": "2449",
            "blacklist(address,address)": "infinite",
            "blockClaim(address)": "2608",
            "createPool((address,address,uint256,uint256,uint256,uint256,uint256,uint256,uint256,uint256,uint256,uint256[2][],uint256,uint256[2][],uint256,uint256))": "infinite",
            "destroyInstance(address)": "infinite",
            "exchangeOracle()": "2448",
            "getParams(address)": "infinite",
            "getRoleAdmin(bytes32)": "2560",
            "getTokenSales()": "infinite",
            "getTokenSalesCount()": "2359",
            "grantRole(bytes32,address)": "infinite",
            "hasRole(bytes32,address)": "2741",
            "masterTokenSale()": "2383",
            "removeClaimBlock(address)": "infinite",
            "removeOperator(address)": "infinite",
            "renounceRole(bytes32,address)": "29085",
            "revokeRole(bytes32,address)": "infinite",
            "setAirdrop(address)": "28067",
            "setClaimBlock(address)": "infinite",
            "setMasterContract(address)": "26971",
            "setOracleContract(address)": "27037",
            "setStakingContract(address)": "27014",
            "setWallet(address)": "26991",
            "stakingContract()": "2447",
            "supportsInterface(bytes4)": "473",
            "tokenSales(uint256)": "4682",
            "tokenSalesM(address)": "2588",
            "wallet()": "2382"
        },
        "internal": {
            "_addToSales(address)": "infinite",
            "_checkingParams(struct ITokenSale.Params memory)": "infinite",
            "_descendingSort(uint256[2] memory[] memory)": "infinite",
            "_removeFromSales(address)": "infinite"
        }
    }
}